:020000040800F2
:100000003007002089010008191C0008111C000895
:10001000151C000845020008451D000800000000EE
:10002000000000000000000000000000211C00088B
:1000300049020008000000001D1C0008251C0008E3
:10004000A3010008A3010008A3010008A301000800
:10005000A3010008A3010008A3010008A3010008F0
:10006000A3010008A3010008A3010008A3010008E0
:10007000A3010008A3010008A3010008A3010008D0
:10008000A3010008A3010008A3010008A3010008C0
:10009000A3010008A3010008A3010008A3010008B0
:1000A000A3010008A3010008A3010008A3010008A0
:1000B000A3010008A3010008A3010008A301000890
:1000C000A3010008A3010008A3010008A301000880
:1000D000A3010008391D0008A3010008A3010008BE
:1000E000A3010008A3010008A301000800F002F822
:1000F00000F03AF80AA090E8000C82448344AAF188
:100100000107DA4501D100F02FF8AFF2090EBAE885
:100110000F0013F0010F18BFFB1A43F0010318473B
:100120002826000048260000103A24BF78C878C16D
:10013000FAD8520724BF30C830C144BF04680C60ED
:10014000704700000023002400250026103A28BF35
:1001500078C1FBD8520728BF30C148BF0B60704739
:100160001FB51FBD10B510BD00F031F81146FFF7E7
:10017000F7FF01F063FE00F04FF803B4FFF7F2FF62
:1001800003BC00F057F800000948804709480047C1
:10019000FEE7FEE7FEE7FEE7FEE7FEE7FEE7FEE737
:1001A000FEE7FEE704480549054A064B7047000094
:1001B000291C0008ED000008300100203007002055
:1001C00030030020300300207047704770477546A9
:1001D00000F02CF8AE4605006946534620F00700B3
:1001E000854618B020B5FFF7DDFFBDE820404FF091
:1001F00000064FF000074FF000084FF0000BAC4630
:10020000ACE8C009ACE8C009ACE8C009ACE8C0097A
:1002100021F007018D46704710B50446AFF300800A
:100220002046BDE81040FFF7A8BF00000048704717
:100230001000002001491820ABBEFEE72600020096
:1002400070470000FEE7000070470000014690F88C
:100250002100022816D10868D1E90FC3026822F0F4
:100260000E020260026822F001020260012000FA20
:1002700003F2CCF8042081F821000020002281F84C
:1002800020207047042088630120002281F820206C
:100290007047000080B590F82110022924D102682F
:1002A000116821F00E0111602F211368C4F20201C0
:1002B0008A4240F20401C4F2020123F001031360F8
:1002C00016DD3023C4F202039A421DD04423C4F247
:1002D00002039A421CD05823C4F202039A421DD151
:1002E0004FF4803322E000BF04218163012080BDF0
:1002F0000823C4F202039A420ED01C23C4F2020364
:100300009A420BD1102311E04FF480730EE000BF2E
:100310004FF480530AE000BF012307E001F1680CAD
:100320004FF08073624508BF4FF480130B600121CA
:1003300080F82110426B002180F820100AB190470C
:100340000021084680BD0000B0B5044600F024F945
:10035000054640F20000C2F200000078611C18BFA0
:10036000044400BF00F018F9401BA042FAD3B0BD0E
:100370002DE9F04F82B00E68002E00F0038141F2AB
:100380000042C4F20102042340F2004E904208BF32
:1003900003234FF6FF7CC4F2010E009300240123D7
:1003A000C1F2100C4FF0000A4FF0000949E000BF05
:1003B000012704F00C030F229A402BEA020207FAED
:1003C00003F34FEA9A051A4346F82520D1F804B002
:1003D00040F20C455FEACB22DEF8082054BF22EA47
:1003E000080242EA0802C4F20105CEF808202A6891
:1003F0005FEA8B2354BF22EA080242EA08022A601D
:100400005FEA8B33DEF8042054BF22EA080242EA96
:1004100008025FEACB33CEF80420DEF800204FF06C
:10042000010354BF22EA080242EA0802CEF8002083
:100430000E680AF1010A36FA0AF204F1040400F027
:10044000A18003FA0AF816EA080FF1D04E68664553
:1004500012DC122E56D8DFE806F0350B454955550B
:1004600055555555555555555555554D510000BF88
:10047000D1F80C9046E000BF4FF6FF72C1F22102A6
:1004800096420FDC0022C1F2110296421AD00022DD
:10049000C1F21202964215D00022C1F22102964208
:1004A00010D02FE00022C1F2220296420AD0002290
:1004B000C1F23102964205D00022C1F232029642C8
:1004C00020D100BF8A684AB1012A14BFC0F8148045
:1004D000C0F810804FF0080914E000BF4FF0040985
:1004E00010E000BFCA6802F108090BE04FF00009F4
:1004F00008E000BFCA6802F1040903E0CA6802F11B
:100500000C0900BF22460646BAF1080F24BF203A64
:10051000043637680F25954027EA050509FA02F2E7
:100520002A433260CA79D2067FF582AF41F21803BE
:10053000C4F202031A68AEF57E7642F001021A6038
:100540001A6802F001020192019A2AF0030256F899
:1005500002B040F60002C4F20102904210D040F610
:100560000042C4F2010290423FF422AF41F2000285
:10057000C4F20102009F904208BF022719E700BFA2
:10058000002716E702B0BDE8F08F0000002A08BF80
:10059000090401617047000040F22C10C2F2000013
:1005A0000068704740F2000040F22C11C2F20000D7
:1005B000C2F2000100780A68104408607047000029
:1005C00080B542F20000C4F20200016841F010015F
:1005D0000160032000F08EF80F2000F005F800F015
:1005E00027F8002080BD000070B540F20006C2F27E
:1005F000000640F208013278C2F200014FF47A732B
:100600000968B3FBF2F20446B1FBF2F1084600F0D0
:1006100063FB0F2C4FF0010508D838B94FF0FF30BD
:1006200021460022002500F039F87460284670BD8C
:1006300082B041F21800C4F202000168022241F0C7
:1006400001010160016801F0010101910199416816
:1006500041F080514160406800F080500090009867
:100660000420C4F20100016862F31A61016002B063
:1006700070470000002848BF7047C1B200F01F005B
:10068000012202FA00F04EF20012CEF2000242EA1B
:10069000D10121F0030108607047000010B54EF64B
:1006A0000C5CCEF2000CDCF80030C3F3022E8EF0AE
:1006B0000704042C28BF0424BEF103034FF0FF3EBF
:1006C0000EFA04F438BF0023A14399400EFA03F355
:1006D0009A43114300F00F0200F160430901043A0C
:1006E00003F564436244002848BF02F10C0319700B
:1006F00010BD00004EF60C51CEF200010A684FF614
:10070000FF031A4060F30A2242F0806040F0FD705F
:10071000086070472DE9F04381B0002800F0858023
:1007200042F20008C4F202080446D8F800000D4660
:1007300000F0070088420CD2D8F8000020F0070033
:100740002843C8F80000D8F8000000F00700A842CD
:100750006BD1206841F204098107C4F2020917D560
:10076000410705D5D9F8001041F4E061C9F800103F
:10077000010705D5D9F8001041F46051C9F80010FF
:10078000D9F80010A26821F0F0011143C9F8001057
:10079000C00741D1D8F8000000F00700A8420CD9EA
:1007A000D8F8000020F007002843C8F80000D8F867
:1007B000000000F00700A84237D12068410707D5A4
:1007C000D9F80010E26821F4E0611143C9F8001083
:1007D000000708D5D9F80000216920F4605040EAEC
:1007E000C100C9F80000D9F8002002F00C00082868
:1007F00041F20020C0F27A0050D142F23673C2F3C7
:100800008341C0F60003595CD2033BD440F600108C
:10081000C0F23D00484341E0606802280AD0012848
:100820002AD159F8041C890308D4012001B0BDE87D
:10083000F08300BF59F8041C8901F6D5D9F80010DF
:1008400021F003010843C9F80000FFF7A5FE0646A2
:1008500041F28837D9F80000616800F00C00B0EB75
:10086000810F97D0FFF798FE801BB842F2D9032082
:1008700001B0BDE8F08300BF59F8041C8907D4D546
:10088000DCE700BFD9F8002042F23473C2F34042E3
:10089000C0F600039A5C4843B0FBF2F0D9F80010B0
:1008A00042F21C72C1F30311C0F60002515C40F227
:1008B000080220FA01F140F20400C2F200000068D0
:1008C000C2F200021160FFF78FFE002001B0BDE808
:1008D000F083000040F2080041F20401C2F200007F
:1008E000C4F202010068096842F22C72C1F30221CD
:1008F000C0F60002515CC8407047000040F208009A
:1009000041F20401C2F20000C4F202010068096869
:1009100042F22C72C1F3C221C0F60002515CC84001
:10092000704700002DE9F04182B0002868D00446ED
:10093000007841F20006C007C4F2020625D07068B4
:1009400000F00C0004281BD0706800F00C00082890
:1009500002D17068C00313D46068002800F0688179
:10096000B0F5A02F00F07C81B0F5803F00F07C81D5
:10097000306820F480303060306820F4802076E1E8
:100980003068800301D56068D0B32078800718D51F
:10099000706810F00C0F07D0706800F00C00082889
:1009A0006ED17068C0036BD43068800702D52069AF
:1009B000012825D13068616920F0F80040EAC100C3
:1009C0003060207800071FD42078400732D4E569D2
:1009D00095B1706800F00C00082840F08F80012D60
:1009E0000ED07068216A00F480328A4208D1616AB0
:1009F00000F47010884203D1002002B0BDE8F081FD
:100A0000012002B0BDE8F081A069002862D000207A
:100A1000C4F242200121C0F88014FFF7BDFD054655
:100A2000706A800700F18C80FFF7B6FD401B02283A
:100A3000F6D92AE1F06910F0805808D1F06940F049
:100A40008050F061F06900F080500090009847F20B
:100A50000007C4F200073868C00529D4386840F49C
:100A600080703860FFF798FD054600BF3868C00504
:100A70001ED4FFF791FD401B6428F7D905E100BFA4
:100A80002069002840F20000C4F2422000F0828079
:100A900001210160FFF780FD054600BF3068800737
:100AA0003FF588AFFFF778FD401B0228F6D9ECE050
:100AB000E068002800F08080052800F09780012879
:100AC00000F09880306A20F001003062306A20F037
:100AD000040092E00020C4F242200021C0F88014FB
:100AE000FFF75AFD054600BF706A80077FF56CAFBF
:100AF000FFF752FD401B0228F6D9C6E00027C4F2DA
:100B0000422700203866FFF747FD022D05460BD12E
:100B10003068800140F1BE80FFF73EFD401B022897
:100B20004FF00300F4D968E7306880017FF564AFC7
:100B3000FFF732FD401B02284FF00300F4D95CE7B9
:100B400040F20800C2F20000006844F6D351C1F23E
:100B50006201A0FB0101480A019000BF00BF01989B
:100B6000411E002801913FF42FAF00BF0198411EA4
:100B7000002801913FF428AF00BF0198411E0028D2
:100B800001913FF421AF00BF0198411E002801915F
:100B9000E4D119E700210160FFF7FEFC054600BF24
:100BA000306880077FF50DAFFFF7F6FC401B022889
:100BB0004FF00300F4D920E7306A20F001003062E2
:100BC000306A20F004003062FFF7E6FC054641F28F
:100BD000883700BF306A800720D5FFF7DDFC401B57
:100BE000B8424FF00300F5D907E700BF306A40F084
:100BF00004003062306A40F001003062FFF7CCFC44
:100C0000054641F2883700BF306A800706D4FFF7F7
:100C1000C3FC401BB842F7D937E000BFB8F1000F62
:100C20007FF4D5AEF06920F08050F061CFE600BFD0
:100C3000306820F480303060306820F480203060EC
:100C4000FFF7AAFC054600BF306880037FF59DAE24
:100C5000FFF7A2FC401B64284FF00300F4D9CCE658
:100C6000306840F480203060306840F4803030607C
:100C7000FFF792FC054600BF306880033FF585AE64
:100C8000FFF78AFC401B6428F6D9032002B0BDE8B8
:100C9000F08100BF206AB0F5803F05D17168A2687D
:100CA00021F40031114371607168626A21F474119A
:100CB00011430843706001203866FFF76DFC04465D
:100CC000306880013FF598AEFFF766FC001B0228F4
:100CD0004FF00300F4D990E6411E0020B0EB116FF5
:100CE0001CBF012070474EF21002CEF2000251608C
:100CF0004EF62351CEF20001F0230B7007219060D5
:100D000011607047B0B590F83C20012A04BF022062
:100D1000B0BD01F108053CCDD1E900CE23F47C53F0
:100D200022F470521A432EF4F0431A432CF4E04399
:100D30001A4324F4C0431A432A43C96922F4804267
:100D4000036811435964002180F83C100846B0BD87
:100D500010B590F83C20012A4FF0020233D080F801
:100D60003D200268D2F804E0D2F808C00C682EF0EA
:100D70007003234340F2FF74C4F20004A2425360A4
:100D80000ADCB2F1804F13D040F20043C4F20003FA
:100D90009A420DD011E000BF42F60043C4F20103B5
:100DA0009A4205D040F60003C4F200039A4204D1EF
:100DB00049682CF08003194391600121002280F8DA
:100DC0003D1080F83C20104610BD0000002804BFF4
:100DD0000120704710B5044690F83D0028B9002066
:100DE00084F83C00204600F067F8022084F83D00BB
:100DF000206840F2FF730268C4F2000342F6004C20
:100E00009842C4F2010C15DCB0F1804F1AD040F2C8
:100E10000041C4F20001884214D0984218DCB0F1BD
:100E2000804F1DD040F20041C4F20001884217D02B
:100E30001AE000BF604505D040F60001C4F2000191
:100E40008842EAD1A16822F070020A439842E6DDA6
:100E5000604505D040F60001C4F20001884203D18C
:100E6000216922F440720A43A36922F08001D4F878
:100E700004E0E268194360450160C262C0F828E0FE
:100E800002D16169CCF8301001214161002084F861
:100E9000461084F83E1084F83F1084F8401084F81F
:100EA000411084F8421084F8431084F8441084F808
:100EB000451084F83D1010BD81B0006842F6004135
:100EC000C4F20101884201D001B0704741F218001C
:100ED000C4F20200016841F400610160006800F49E
:100EE00000600090009801B07047000080B590F855
:100EF0003C20012A4FF0020200F0C28080F83D2021
:100F0000D0F800C04FF67772DCF8083023EA02020E
:100F1000CCF808200B684F2B28DC1F2B44DD202B3E
:100F200045D0302B43D0402B40F0AC80D1F804E0CA
:100F3000C968DCF82030DCF8202022F00102CCF86F
:100F40002020DCF8182022F0F00242EA011123F000
:100F50000A0242EA0E02CCF81810CCF82020DCF885
:100F6000081041F0470121F0300180E06F2B27DDB0
:100F7000B3F5005F48D0B3F5805F7AD0702B40F0B6
:100F80008180D1E901E3C968DCF8082043EA0E0357
:100F900022F47F4243EA01211143CCF80810DCF827
:100FA000081041F0770162E00BB1102B6AD1DCF838
:100FB000081021F07001194341F0070157E000BF0C
:100FC000502B35D0602B5DD1D1F804E0C968DCF836
:100FD0002030DCF8202022F01002CCF82020DCF8B1
:100FE000182022F4704242EA013123F0A00242EAC2
:100FF0000E12CCF81810CCF82020DCF8081041F0C4
:10100000670121F0100132E0D1E901E3C968DCF8A1
:10101000082043EA0E0322F47F4243EA01211143F0
:10102000CCF80810DCF8081041F480411FE000BF44
:10103000D1F804E0C968DCF82030DCF8202022F088
:101040000102CCF82020DCF8182022F0F00242EA5D
:10105000011123F00A0242EA0E02CCF81810CCF873
:101060002020DCF8081041F0570121F02001CCF8D5
:1010700008100022012180F83D10002180F83C106A
:10108000104680BD0122F5E780B586B0014640F6E6
:101090000000C4F20100096800F5105300229942D3
:1010A000049201D006B080BD41F21801C4F20201E1
:1010B0000A6842F004020A60096801F00401019123
:1010C00001994FF44071029102210391059102A907
:1010D000FFF74EF906B080BD2DE9F04390F83C30A3
:1010E000012B04BF0220BDE8F0834FEAB202032ABD
:1010F0003CD8DFE802F0034381BD00BF036842F63D
:1011000000461D6A1A6AC4F2010622F001021A6240
:101110001A465C6852F818CFB3428E68D1F800E0E6
:1011200025F0020545EA06050CD1CE68D1E905781F
:1011300024F4407425F00C0526F004063C433543A6
:1011400044EA08042CF0730747EA0E075C609F61CD
:101150004F6809695F631D629F6947F008079F61D7
:101160009F6927F004079F61B2E000BF01210022C0
:1011700080F83C200846BDE8F08300BF036842F6D3
:1011800000461D6A1A6AC4F2010622F010021A62B1
:101190001A46D3F804C052F8184FB3428E68D1F8FB
:1011A00000E025F0200545EA061510D1CE68D1E90A
:1011B000058725F0C0096FF0400505EA06152CF4F7
:1011C000406647EA080745EA090546EA870C24F421
:1011D000E64444EA0E27C3F804C09F614F680969DA
:1011E0009F631D629F6947F400679F619F6927F4B1
:1011F00080679F616BE000BF036842F600461D6A8E
:101200001A6AC4F2010622F480721A621A46D3F8EE
:1012100004C052F81CEFB3428E680C6825F40075C8
:1012200045EA062511D1CE68D1E9058725F4406944
:10123000360240F2FF4526EA05052CF4405647EAFF
:10124000080745EA090546EA071C2EF073072743FD
:10125000C3F804C0DF614F680969DF631D62DF699D
:1012600047F00807DF61DF6927F00407DF612FE03F
:10127000036842F60047D3F820C01A6AC4F2010797
:1012800022F480521A621A465C6852F81C5FD1F848
:1012900000E08E68BB4204D14F6924F4804444EAE4
:1012A00087142CF4005747EA063725F4E64646EA49
:1012B0000E265C60DE614E6809691E641F62DF698C
:1012C00047F40067DF61DF6927F48067DF610902A7
:1012D0001368194311600021002280F83C20084661
:1012E000BDE8F083002804BF0120704710B5044614
:1012F00090F83D0028B9002084F83C00204600F01A
:1013000067F8022084F83D00206840F2FF7302680D
:10131000C4F2000342F6004C9842C4F2010C15DC02
:10132000B0F1804F1AD040F20041C4F2000188426F
:1013300014D0984218DCB0F1804F1DD040F200412B
:10134000C4F20001884217D01AE000BF604505D002
:1013500040F60001C4F200018842EAD1A16822F0FF
:1013600070020A439842E6DD604505D040F6000170
:10137000C4F20001884203D1216922F440720A4379
:10138000A36922F08001D4F804E0E26819436045C3
:101390000160C262C0F828E002D16169CCF8301067
:1013A00001214161002084F8461084F83E1084F841
:1013B0003F1084F8401084F8411084F8421084F8FB
:1013C000431084F8441084F8451084F83D1010BD93
:1013D0007047000041B1082910D0042914BF00F162
:1013E000410200F13F020BE090F83E20012A1CBFB1
:1013F00001207047022280F83E2013E000F14002F5
:101400001278012A1CBF012070470222082907D048
:10141000042914BF80F8412080F83F2002E000BF7B
:1014200080F84020006801F01F010122036A8A4011
:1014300023EA02010162036A42F64441C4F2010157
:101440001A43A1F14403984202620FD040F2FF71A7
:10145000C4F20001884213DCB0F1804F1CD040F28E
:101460000041C4F20001884216D01CE00A6842F430
:1014700000420A6040F2FF71C4F200018842EBDDD5
:1014800042F60041C4F20101884205D040F6000155
:10149000C4F20001884206D1816801F007010629E3
:1014A00004BF00207047016841F001010160002085
:1014B000704700007047000070470000B0B582B070
:1014C000044600680168C368426901F02F05202DB9
:1014D00003F0200506D12DB1204602B0BDE8B04092
:1014E00000F0AABB5FEA017C1EBF02F0010E03F40C
:1014F000907212EB0E0253D1226B012A05D111F02A
:10150000100218BF13F0100236D10A0622D513F0CC
:1015100080021FD094F8411021293FD1A168B1F574
:10152000805F03D12169002900F07082216A4A1C82
:10153000226209784160E18C01390A04E1842DD1ED
:10154000C16821F08001C160C16841F04001C16003
:1015500002B0B0BD490621D513F040011ED0C168CC
:1015600021F04001C1602021204684F8411002B0E2
:10157000BDE8B04000F04ABB002101910168019133
:101580004168019101994069400613D4A08DE18D15
:10159000E28D002A18BF884240F0BA8102B0B0BD87
:1015A000CA0718BF13F4807240F0B6804A0700F1F2
:1015B000B980BEE0E06B016849688AB2002AEDD0CC
:1015C000A38D9A42EAD2E1858069202800F09C80B0
:1015D000206850E8030F216820F4807041E803027E
:1015E000DAB1206850E8030F216820F4807041E8E8
:1015F000030292B1206850E8030F216820F4807044
:1016000041E803024AB1206850E8030F216820F442
:10161000807041E80302002ADAD1206850E8050F03
:10162000216820F0010041E80502DAB1206850E8A5
:10163000050F216820F0010041E8050292B1206801
:1016400050E8050F216820F0010041E805024AB189
:10165000206850E8050F216820F0010041E80502EC
:10166000002ADAD1206850E8050F216820F04000F8
:1016700041E80502DAB1206850E8050F216820F042
:10168000400041E8050292B1206850E8050F21684A
:1016900020F0400041E805024AB1206850E8050FFB
:1016A000216820F0400041E80502002ADAD120201C
:1016B00084F8420000202063206850E8030F21686E
:1016C00020F0100041E80302DAB1206850E8030F6F
:1016D000216820F0100041E8030292B1206850E830
:1016E000030F216820F0100041E803024AB120688E
:1016F00050E8030F216820F0100041E80302002A9F
:10170000DAD1E06BFEF7A2FD02206063A08DE18DCF
:10171000401A81B2204674E1626C42F001026264B8
:101720004A0706D5BEF1000F03D0626C42F00202F8
:1017300062648A0706D5BEF1000F03D0626C42F0E6
:1017400004026264BCF1000F09D545EA0E02B2FA48
:1017500082F2520903D1626C42F008026264626C48
:10176000002A3FF41BAF11F0200118BF002D03D059
:10177000204600F061FA20684069616C00F040008A
:1017800001F00801401800F0B58000BF206850E863
:10179000030F216820F4907041E80302BAB3206877
:1017A00050E8030F216820F4907041E8030272B3FF
:1017B000206850E8030F216820F4907041E803028C
:1017C0002AB3206850E8030F216820F4907041E8A4
:1017D0000302002ADAD11AE0206850E8050F2168D8
:1017E00020F0010041E80502DAB1206850E8050F59
:1017F000216820F0010041E8050292B1206850E81C
:10180000050F216820F0010041E805024AB1206877
:1018100050E8050F216820F0010041E80502002A88
:10182000DAD1206B012824D1206850E8030F216809
:1018300020F0100041E80302DAB1206850E8030FFD
:10184000216820F0100041E8030292B1206850E8BE
:10185000030F216820F0100041E803024AB120681C
:1018600050E8030F216820F0100041E80302002A2D
:10187000DAD1202084F842000020206320684069EB
:1018800040063FD5206850E8050F216820F0400051
:1018900041E80502DAB1206850E8050F216820F020
:1018A000400041E8050292B1206850E8050F216828
:1018B00020F0400041E805024AB1206850E8050FD9
:1018C000216820F0400041E80502002ADAD1E06BEF
:1018D000C0B141F62D41C0F600014163FEF7DAFCCC
:1018E00000283FF45BAEE06B416B02B0BDE8B04056
:1018F000084700BF2046FFF7DFFD0020606402B00C
:10190000B0BD00BF204602B0BDE8B040FFF7D4BD77
:10191000401A216851E8031F226821F4907142E8BF
:101920000313DBB1216851E8031F226821F4907191
:1019300042E8031393B1216851E8031F226821F4A0
:10194000907142E803134BB1216851E8031F2268EC
:1019500021F4907142E80313002BDAD1216851E899
:10196000051F226821F0010142E80513DBB121685F
:1019700051E8051F226821F0010142E8051393B1E7
:10198000216851E8051F226821F0010142E8051392
:101990004BB1216851E8051F226821F0010142E89E
:1019A0000513002BDAD1202184F842100021216395
:1019B000216851E8031F226821F0100142E8031357
:1019C000DBB1216851E8031F226821F0100142E8D1
:1019D000031393B1216851E8031F226821F010011D
:1019E00042E803134BB1216851E8031F226821F03C
:1019F000100142E80313002BDAD1022281B2204603
:101A0000626302B0BDE8B040FFF754BD216A31F80F
:101A1000022B6FF35F22426021628CE5002804BF35
:101A20000120704710B5044690F8410028B9002005
:101A300084F84000204600F063F8242084F8410038
:101A40002068D4E90212C36823F40053C360036919
:101A500023F440531A430261D4E904231143C268BA
:101A6000194341F20C639A431143C1604169A26971
:101A700021F44071114343F60002C4F20102904286
:101A8000416103D0FEF726FF02E000BFFEF736FFFC
:101A90006268192148439100B0FBF1F048F21F51F0
:101AA000C5F2EB11A0FB01235A094FF69C73C0F657
:101AB000FF7302FB0300322303EB0010A0FB0101C4
:101AC000F02303EA5113206803EB0212C1F3431120
:101AD00011448160016921F490410161416921F063
:101AE0002A014161C16841F40051C16000202021F8
:101AF000606484F8411084F84210606310BD0000F7
:101B000070B586B040F60044C4F20104006804F5E4
:101B1000305100268842049602D006B070BD00BF46
:101B200041F21800C4F20200016802AD41F48041A4
:101B30000160016801F4804101910199016841F05F
:101B4000080101600068294600F008000190019832
:101B50004020029002200390032005902046FEF7CB
:101B600007FC8020CDE90206204629460496FEF7B0
:101B7000FFFB0420C4F201000168002241F0E06193
:101B800041F00401016025200121FEF787FD252099
:101B9000FEF770FD06B070BD90F84230202B1CBFE0
:101BA0000220704700294FF0010318BF002A01D11D
:101BB0001846704700230363816222218285C28513
:101BC000436480F842100169006819B1C16841F4AA
:101BD0008071C1604169002341F001014161C16828
:101BE00041F02001C160184670470000016840F2D2
:101BF0007000C2F200004268914218BF7047012293
:101C0000811C00F8042B0122FFF7C6BF70470000BB
:101C1000FEE70000FEE70000FEE70000704700005E
:101C200070470000FEF7BEBC70470000406A00210C
:101C3000C185C184FFF740BC81B090F842102229D1
:101C400021D183680246B3F5805F09D152F8281F7D
:101C500052F8183C002B63D003685B680AE000BFB1
:101C600052F8281F13B90369002BF5D003685B688D
:101C700003F07F030B70116801311160C18D0139D0
:101C80000A04C18502D001B0704700BF0168CA686C
:101C900022F02002CA60CA6822F48072CA604A69CF
:101CA00022F001024A61202180F8421000214163A4
:101CB000026B012A3CD10163016851E8031F0268ED
:101CC00021F0100142E80313DBB1016851E8031F62
:101CD000026821F0100142E8031393B1016851E852
:101CE000031F026821F0100142E803134BB10168A1
:101CF00051E8031F026821F0100142E80313002B92
:101D0000DAD101680A68D20606D5002200920A6874
:101D10000092496800910099818D01B0FFF7CABB1C
:101D2000026852686FF35F2221F8022B8162A5E7F7
:101D300001B0FFF75BBF000040F27400C2F2000088
:101D4000FFF7BCBBFEE700002DE9F04182B00DF1CA
:101D5000200C9CE8201140F2BC07C2F20007144698
:101D6000064607F114001A462B46CDF800C000F0D5
:101D7000F7F93846314622462B46CDF8008000F070
:101D8000EFF902B0BDE8F081B0B5042888BFB0BD5E
:101D90000C46DFE800F003151D2F410040F2BC04A3
:101DA000C2F2000420460021002200F0A9F904F14B
:101DB000140000210022BDE8B04000F0A1B900BF2E
:101DC00040F2BC05C2F2000528460121224618E077
:101DD00040F2BC05C2F2000528460221224600F06E
:101DE0008FF905F1140002212246BDE8B04000F051
:101DF00087B900BF40F2BC05C2F2000528460021A9
:101E0000002200F07DF905F1140001212246BDE811
:101E1000B04000F075B900BF40F2BC05C2F2000549
:101E200028460121224600F06BF905F1140000213B
:101E30000022BDE8B04000F063B900009AB0FEF7A0
:101E4000BFFB00240120CDE90844CDE906440390FE
:101E500007904FF4E0104FF4803102250C9003A856
:101E6000CDE90414CDE90A51FEF75CFD20B1EFF392
:101E7000108072B6FEE700BF0F20CDE90D054FF4CC
:101E80008060CDE910040DA802210F94FEF742FCFA
:101E900020B1EFF3108072B6FEE700BF41F21800E8
:101EA000C4F20200016840F6004441F020010160E4
:101EB0000168C4F2010401F0200103910399016853
:101EC000002241F00801016001684FF4404601F032
:101ED0000801039103990168002541F004010160A4
:101EE00000684FF4404100F004000390039820463E
:101EF000FEF74CFB0120CDE904050220069003A962
:101F000020460396FEF734FA40F2E40004F500514F
:101F1000C2F2000040F2E7331995CDE91755CDE93B
:101F200014550995472280E82600C0E90335C0E929
:101F30000555FEF74BFF28B1EFF3108072B600BFD6
:101F4000FEE700BF4FF48050169040F2E400C2F26A
:101F5000000016A9FEF7CAFF20B1EFF3108072B699
:101F6000FEE700BF40F2E400C2F20000FFF7BAF95A
:101F700020B1EFF3108072B6FEE700BF40F2E4003C
:101F8000C2F2000014A9FEF7E3FE28B1EFF31080BF
:101F900072B600BFFEE700BF60200D900020CDE9C3
:101FA0000E00CDE91000CDE9120040F2E400C2F2CB
:101FB00000000DA90022FFF78FF828B1EFF3108081
:101FC00072B600BFFEE700BF40F2E400C2F20000BC
:101FD0000DA90422FFF780F820B1EFF3108072B64C
:101FE000FEE700BF4FF40050089040F2E4000027E5
:101FF000C2F2000003A90797CDE90577CDE9037781
:102000000A97FEF77FFE28B1EFF3108072B600BF8B
:10201000FEE700BF40F2E405C2F200052846FFF7E4
:1020200033F840F27006C2F2000604F53051304633
:1020300040F8041F4FF416510C22C0E90117C0E903
:102040000377C0E90527C761FFF7E8FC20B1EFF38C
:10205000108072B6FEE700BF0420002702902046E1
:1020600021464FF480424FF4004300950197FFF75B
:102070006BFE301DB11C0122FFF78EFD202464256C
:1020800006E000BFFFF780FE37700A20FEF75CF91C
:1020900030780028F9D0B078A0F14201112913D886
:1020A000DFE801F00E1212121E1212121212221288
:1020B000121212120A2600BF71780420E2E700BF54
:1020C00071780220DEE700BFA0F13001C9B2092912
:1020D00012D800EB800004EB40007070D4E700BF22
:1020E00071780120CEE700BF71780320CAE700BFF6
:1020F00071780020C6E700BF712808BF7570C3E77C
:10210000B0B515460229044610D001291CD000297B
:1021100018BFB0BD2068A1880022FEF737FAD4E9C5
:1021200002010022BDE8B04000F02AB82068A18872
:102130000122FEF72BFAD4E90201C5F16402D2B202
:10214000BDE8B04000F01CB82068A1880022FEF76E
:102150001DFAD4E902012A46BDE8B04000F010B8EB
:1021600080B5DDF808E09C46034680E8061060462E
:102170007146C3F80CE0BDE88040FFF72BB90000C2
:10218000F0B581B0054610460C4600F0B6F90023C4
:10219000C4F25903002200F027F82F680546F86AB8
:1021A0000E4600F0AAF902460B462846314600F0DA
:1021B000B7F900F073F94FEAB401032911D8DFE849
:1021C00001F003070B0F00BF786301B0F0BD00BF43
:1021D000B86301B0F0BD00BFF86301B0F0BD00BF4F
:1021E000386401B0F0BD00002DE9C04130B4DFF823
:1021F000A4C23CEA111418BF3CEA131400F0ED80AD
:102200001CEA111481EA030544EAD57418BF1CEADC
:10221000131500F0C880A4EB050404F17F7404F5E5
:1022200000344FF0004545EAC12145EAC32341EAA5
:10223000505143EA52534FEAC0204FEAC22299421A
:1022400008BF904200F09D804FEA13650FF24416DC
:10225000765D4FEA134506FB05F7C7F1807706FB6D
:1022600007F74FEAD737A7FB03687642A7FB06CEEE
:10227000C8F5803838BFA8F1010807FB08E6A6FBBF
:10228000028C4FF0000EE6FB03CEDCF1000CCEF129
:10229000004E38BFAEF1010EA6FB0C584FF0000700
:1022A000E6FB0E87A1FB08C6A0FB07CE16EB0E06C9
:1022B0004FF0000545F10005E1FB076515F1E04E23
:1022C0007EBFA4F580345FEA46066D4116F18007B3
:1022D00045F100054FEA172747EA05674FEA15253C
:1022E0004FEA0666A6F1DE46B6F1805F20D9384691
:1022F00005EBC47124F0010C01EB0C11BCF1FE6F75
:1023000002D8F0BCBDE8008124425CBF01F5801E0C
:102310009EEAC47F02D4F0BCBDE80081244200F1F3
:102320003980A1F1C041F0BCBDE8004100F0F0B936
:102330004FEAD02040EA41504FEAD1214FEAD22261
:1023400042EA43524FEAD323A7FB028607FB036608
:1023500005FB02661EEA0E0F58BFA6EB0056B6EB51
:1023600000564FEA520E4EEAC37E18EB0E0E56EBA5
:10237000530EBCD518EB02085E417F1C55F10005D9
:10238000B5E74FF480154FF000074FF000064FF00F
:102390000008ACE701F1C04101F000414FF000003E
:1023A000F0BCBDE800810CEA131511EA0C1F00D047
:1023B0000CE013EA0C1F00F026804FF0000081EAC9
:1023C000030101F00041F0BCBDE80081F0BCBDE8B4
:1023D000004181EA030100F09BB9F0BCBDE8004177
:1023E00070B500F047F900BF097EFC3E00F007B869
:1023F0004FF0000081EA030101F00041704781EADB
:10240000030100F085B9F0BCBDE8004122494FF05E
:1024100000007047FFFDFBF9F7F5F4F2F0EEEDEB8D
:10242000E9E8E6E4E3E1E0DEDDDBDAD8D7D5D4D3D2
:10243000D1D0CFCDCCCBCAC8C7C6C5C4C2C1C0BF1E
:10244000BEBDBCBBBAB9B8B7B6B5B4B3B2B1B0AF24
:10245000AEADACABAAA9A8A8A7A6A5A4A3A3A2A108
:10246000A09F9F9E9D9C9C9B9A99999897979695C3
:1024700095949393929191908F8F8E8E8D8C8C8B5F
:102480008B8A8989888887878685858484838382E7
:10249000828181800000FF070000F87F4FEA41033E
:1024A0004FEA5353A3F58063D3F11E03C8BFD3F1A2
:1024B000210C0CDD4FF0004242EAC12242EA5052A8
:1024C00032FA03FC8CEAE17CACEBE1707047102B34
:1024D000C4BF0020704703F5787CBCF1FF3F04D0F7
:1024E0006FF0004282EA2100704770B500F0C2F838
:1024F0004992248000207047F2E7B0FA80F310FA86
:1025000003F10AD0C3F11D0303F580634FEA0352C0
:102510004FEA415002EBD12170474FF00000704765
:1025200070B5DFF848C11CEA111E1EBF1CEA131566
:102530009EEA0C0F95EA0C0F00F06F8081EA03040D
:102540004EEAD47EAE4421EA4C1123EA4C1341F406
:10255000801143F48013AEF17F7EA1FB024CA0FBFF
:102560000365361955EB0C05A1FB034C4CF1000338
:10257000A0FB021C16EB0C06654153F10003094257
:1025800018BF46F0010613F4007F0BD14FEA033168
:102590004FEA053041EA155140EA165034036FF016
:1025A00003020AE04FEAC3214FEAC52041EA555130
:1025B00040EA5650F4026FF0020202EB2E4201EBA9
:1025C000025585EACE710AD05FEA440C18BF24F0A8
:1025D000004450F1000041F1000120EAD47040F2C3
:1025E000FE7C624500D270BDA84214BF4FF080440B
:1025F0004FF04044002E08BF0024BEF1806FA8BFFA
:10260000A1F1C041BDE8704080F2828001F1C0417B
:1026100001F000414FF0000070470CEA13159EEAEC
:102620000C0F18BF95EA0C0F06D081EA030E4FF08D
:1026300000000EF0004170BD00F01CF88900013E62
:1026400000F007B800F009B84FEA430C5FEA5C5CA1
:1026500008D081EA030100F05BB84FEA410C5FEA61
:102660005C5CF6D102494FF0000070470000FF07A4
:102670000000F87F0EF1020E2EF0030E5EF8046BE0
:10268000364205D4012A43EB030515F5001F12D885
:10269000012841EB010C1CF5001F0CD80ED14FEAAC
:1026A000D17C0CEB4C0C0CF1020C15F5001F08BF93
:1026B0004CEBD37C04E04FF0080C01E04FEAD37CF4
:1026C0000CEB4C0526FA05F606F00706B6F1040CED
:1026D00006D20EEB860CBDE870404CF0010C604752
:1026E000DFE80CF0090B02024FF00041A1F50021D8
:1026F0004FF0000070BD19461046012851EB01044F
:1027000018BFD4F5001484BF002001F0004170BD53
:102710000808A0F500114FEA3101704700000000E1
:102720000000000001020304060708090000000081
:1027300001020304010202030405060708090A0B4B
:102740000C0D0E0F1010000068270008000000207C
:102750001000000028010008782700081000002061
:1027600020070000440100080100000010000000E4
:082770000024F4000000000049
:04000005080000ED02
:00000001FF
